{
  "contractName": "y0",
  "abi": [
    {
      "inputs": [],
      "stateMutability": "nonpayable",
      "type": "constructor"
    },
    {
      "inputs": [],
      "name": "admin",
      "outputs": [
        {
          "internalType": "uint256",
          "name": "",
          "type": "uint256"
        }
      ],
      "stateMutability": "view",
      "type": "function",
      "constant": true
    },
    {
      "inputs": [],
      "name": "owner",
      "outputs": [
        {
          "internalType": "address",
          "name": "",
          "type": "address"
        }
      ],
      "stateMutability": "view",
      "type": "function",
      "constant": true
    },
    {
      "inputs": [],
      "name": "reader",
      "outputs": [
        {
          "internalType": "uint256",
          "name": "",
          "type": "uint256"
        }
      ],
      "stateMutability": "view",
      "type": "function",
      "constant": true
    },
    {
      "inputs": [
        {
          "internalType": "address",
          "name": "acc",
          "type": "address"
        }
      ],
      "name": "getRole",
      "outputs": [
        {
          "internalType": "uint256",
          "name": "",
          "type": "uint256"
        }
      ],
      "stateMutability": "view",
      "type": "function",
      "constant": true
    },
    {
      "inputs": [
        {
          "internalType": "address",
          "name": "acc",
          "type": "address"
        }
      ],
      "name": "revokeRole",
      "outputs": [],
      "stateMutability": "nonpayable",
      "type": "function"
    },
    {
      "inputs": [
        {
          "internalType": "address",
          "name": "acc",
          "type": "address"
        },
        {
          "internalType": "uint256",
          "name": "role",
          "type": "uint256"
        }
      ],
      "name": "grantRole",
      "outputs": [],
      "stateMutability": "nonpayable",
      "type": "function"
    }
  ],
  "bytecode": "0x6080604052600180556002805534801561001857600080fd5b50336000806101000a81548173ffffffffffffffffffffffffffffffffffffffff021916908373ffffffffffffffffffffffffffffffffffffffff160217905550600154600360003373ffffffffffffffffffffffffffffffffffffffff1673ffffffffffffffffffffffffffffffffffffffff16815260200190815260200160002081905550610aab806100ae6000396000f3fe608060405234801561001057600080fd5b50600436106100625760003560e01c80633c09e2fd14610067578063442767331461008357806380e52e3f146100b35780638da5cb5b146100cf578063d4fc42c6146100ed578063f851a4401461010b575b600080fd5b610081600480360381019061007c91906106cf565b610129565b005b61009d6004803603810190610098919061070f565b61039c565b6040516100aa919061074b565b60405180910390f35b6100cd60048036038101906100c8919061070f565b6103e5565b005b6100d7610606565b6040516100e49190610775565b60405180910390f35b6100f561062a565b604051610102919061074b565b60405180910390f35b610113610630565b604051610120919061074b565b60405180910390f35b6000600360003373ffffffffffffffffffffffffffffffffffffffff1673ffffffffffffffffffffffffffffffffffffffff16815260200190815260200160002054905060008054906101000a900473ffffffffffffffffffffffffffffffffffffffff1673ffffffffffffffffffffffffffffffffffffffff163373ffffffffffffffffffffffffffffffffffffffff1614806101c8575060015481145b610207576040517f08c379a00000000000000000000000000000000000000000000000000000000081526004016101fe90610813565b60405180910390fd5b600154821480610218575060025482145b610257576040517f08c379a000000000000000000000000000000000000000000000000000000000815260040161024e9061087f565b60405180910390fd5b8273ffffffffffffffffffffffffffffffffffffffff163373ffffffffffffffffffffffffffffffffffffffff16036102c5576040517f08c379a00000000000000000000000000000000000000000000000000000000081526004016102bc906108eb565b60405180910390fd5b8273ffffffffffffffffffffffffffffffffffffffff1660008054906101000a900473ffffffffffffffffffffffffffffffffffffffff1673ffffffffffffffffffffffffffffffffffffffff1603610353576040517f08c379a000000000000000000000000000000000000000000000000000000000815260040161034a90610957565b60405180910390fd5b81600360008573ffffffffffffffffffffffffffffffffffffffff1673ffffffffffffffffffffffffffffffffffffffff16815260200190815260200160002081905550505050565b6000600360008373ffffffffffffffffffffffffffffffffffffffff1673ffffffffffffffffffffffffffffffffffffffff168152602001908152602001600020549050919050565b6000600360003373ffffffffffffffffffffffffffffffffffffffff1673ffffffffffffffffffffffffffffffffffffffff16815260200190815260200160002054905060008054906101000a900473ffffffffffffffffffffffffffffffffffffffff1673ffffffffffffffffffffffffffffffffffffffff163373ffffffffffffffffffffffffffffffffffffffff161480610484575060015481145b6104c3576040517f08c379a00000000000000000000000000000000000000000000000000000000081526004016104ba90610813565b60405180910390fd5b8173ffffffffffffffffffffffffffffffffffffffff163373ffffffffffffffffffffffffffffffffffffffff1603610531576040517f08c379a0000000000000000000000000000000000000000000000000000000008152600401610528906109c3565b60405180910390fd5b8173ffffffffffffffffffffffffffffffffffffffff1660008054906101000a900473ffffffffffffffffffffffffffffffffffffffff1673ffffffffffffffffffffffffffffffffffffffff16036105bf576040517f08c379a00000000000000000000000000000000000000000000000000000000081526004016105b690610a55565b60405180910390fd5b600360008373ffffffffffffffffffffffffffffffffffffffff1673ffffffffffffffffffffffffffffffffffffffff168152602001908152602001600020600090555050565b60008054906101000a900473ffffffffffffffffffffffffffffffffffffffff1681565b60025481565b60015481565b600080fd5b600073ffffffffffffffffffffffffffffffffffffffff82169050919050565b60006106668261063b565b9050919050565b6106768161065b565b811461068157600080fd5b50565b6000813590506106938161066d565b92915050565b6000819050919050565b6106ac81610699565b81146106b757600080fd5b50565b6000813590506106c9816106a3565b92915050565b600080604083850312156106e6576106e5610636565b5b60006106f485828601610684565b9250506020610705858286016106ba565b9150509250929050565b60006020828403121561072557610724610636565b5b600061073384828501610684565b91505092915050565b61074581610699565b82525050565b6000602082019050610760600083018461073c565b92915050565b61076f8161065b565b82525050565b600060208201905061078a6000830184610766565b92915050565b600082825260208201905092915050565b7f596f752068617665206e6f2061636365737320746f2074686973206d6574686f60008201527f6400000000000000000000000000000000000000000000000000000000000000602082015250565b60006107fd602183610790565b9150610808826107a1565b604082019050919050565b6000602082019050818103600083015261082c816107f0565b9050919050565b7f556e6b6e6f776e20726f6c650000000000000000000000000000000000000000600082015250565b6000610869600c83610790565b915061087482610833565b602082019050919050565b600060208201905081810360008301526108988161085c565b9050919050565b7f596f752063616e206e6f742073657420726f6c6520746f20796f757273656c66600082015250565b60006108d5602083610790565b91506108e08261089f565b602082019050919050565b60006020820190508181036000830152610904816108c8565b9050919050565b7f596f752063616e206e6f742073657420726f6c6520746f206f776e6572000000600082015250565b6000610941601d83610790565b915061094c8261090b565b602082019050919050565b6000602082019050818103600083015261097081610934565b9050919050565b7f596f752063616e206e6f7420736574207265766f6b6520796f757220726f6c65600082015250565b60006109ad602083610790565b91506109b882610977565b602082019050919050565b600060208201905081810360008301526109dc816109a0565b9050919050565b7f596f752063616e206e6f7420736574207265766f6b65206f776e65722773207260008201527f6f6c650000000000000000000000000000000000000000000000000000000000602082015250565b6000610a3f602383610790565b9150610a4a826109e3565b604082019050919050565b60006020820190508181036000830152610a6e81610a32565b905091905056fea2646970667358221220dfa2cda0cf4663c75e6a5eea66e5514c384ef73b5a04d28bd6d1f4dda8b3352764736f6c634300080d0033",
  "immutableReferences": {},
  "source": "// SPDX-License-Identifier: MIT\npragma solidity >=0.4.22 <0.9.0;\n\n//import \"@openzeppelin/contracts/access/AccessControl.sol\";\n\n//contract y0 is AccessControl {\ncontract y0 {\n  address public owner;\n\n  uint public admin = 1;\n  uint public reader = 2;\n\n  mapping (address => uint) users;\n\n  constructor() public {\n    owner = msg.sender;\n    users[msg.sender] = admin;\n  }\n\n  function getRole(address acc) public view returns(uint) {\n    return users[acc];\n  }\n\n  function revokeRole(address acc) public {\n    uint user = users[msg.sender];\n\n    require(\n      msg.sender == owner || user == admin,\n      \"You have no access to this method\"\n    );\n\n    require(\n      msg.sender != acc,\n      \"You can not set revoke your role\"\n    );\n\n    require(\n      owner != acc,\n      \"You can not set revoke owner's role\"\n    );\n\n    delete users[acc];\n  }\n\n  function grantRole(address acc, uint role) public {\n    uint user = users[msg.sender];\n\n    require(\n      msg.sender == owner || user == admin,\n      \"You have no access to this method\"\n    );\n\n    require(\n      role == admin || role == reader,\n      \"Unknown role\"\n    );\n\n    require(\n      msg.sender != acc,\n      \"You can not set role to yourself\"\n    );\n\n    require(\n      owner != acc,\n      \"You can not set role to owner\"\n    );\n\n    users[acc] = role;\n  }\n}\n",
  "sourcePath": "/Users/dm/y0/contracts/y0.sol",
  "compiler": {
    "name": "solc",
    "version": "0.8.13+commit.abaa5c0e.Emscripten.clang"
  },
  "schemaVersion": "3.4.7",
  "updatedAt": "2022-04-27T11:35:25.976Z",
  "networkType": "ethereum",
  "devdoc": {
    "kind": "dev",
    "methods": {},
    "version": 1
  },
  "userdoc": {
    "kind": "user",
    "methods": {},
    "version": 1
  }
}