{
  "contractName": "y0",
  "abi": [
    {
      "inputs": [],
      "stateMutability": "nonpayable",
      "type": "constructor"
    },
    {
      "inputs": [],
      "name": "admin",
      "outputs": [
        {
          "internalType": "uint256",
          "name": "",
          "type": "uint256"
        }
      ],
      "stateMutability": "view",
      "type": "function",
      "constant": true
    },
    {
      "inputs": [],
      "name": "owner",
      "outputs": [
        {
          "internalType": "address",
          "name": "",
          "type": "address"
        }
      ],
      "stateMutability": "view",
      "type": "function",
      "constant": true
    },
    {
      "inputs": [],
      "name": "reader",
      "outputs": [
        {
          "internalType": "uint256",
          "name": "",
          "type": "uint256"
        }
      ],
      "stateMutability": "view",
      "type": "function",
      "constant": true
    },
    {
      "inputs": [
        {
          "internalType": "address",
          "name": "acc",
          "type": "address"
        }
      ],
      "name": "getRole",
      "outputs": [
        {
          "internalType": "uint256",
          "name": "",
          "type": "uint256"
        }
      ],
      "stateMutability": "view",
      "type": "function",
      "constant": true
    },
    {
      "inputs": [
        {
          "internalType": "address",
          "name": "acc",
          "type": "address"
        }
      ],
      "name": "revokeRole",
      "outputs": [],
      "stateMutability": "payable",
      "type": "function",
      "payable": true
    },
    {
      "inputs": [
        {
          "internalType": "address",
          "name": "acc",
          "type": "address"
        },
        {
          "internalType": "uint256",
          "name": "role",
          "type": "uint256"
        }
      ],
      "name": "grantRole",
      "outputs": [],
      "stateMutability": "payable",
      "type": "function",
      "payable": true
    }
  ],
  "bytecode": "0x6080604052600180556002805534801561001857600080fd5b50336000806101000a81548173ffffffffffffffffffffffffffffffffffffffff021916908373ffffffffffffffffffffffffffffffffffffffff160217905550600154600360003373ffffffffffffffffffffffffffffffffffffffff1673ffffffffffffffffffffffffffffffffffffffff16815260200190815260200160002081905550610ad2806100ae6000396000f3fe6080604052600436106100555760003560e01c80633c09e2fd1461005a578063442767331461007657806380e52e3f146100b35780638da5cb5b146100cf578063d4fc42c6146100fa578063f851a44014610125575b600080fd5b610074600480360381019061006f91906106f6565b610150565b005b34801561008257600080fd5b5061009d60048036038101906100989190610736565b6103c3565b6040516100aa9190610772565b60405180910390f35b6100cd60048036038101906100c89190610736565b61040c565b005b3480156100db57600080fd5b506100e461062d565b6040516100f1919061079c565b60405180910390f35b34801561010657600080fd5b5061010f610651565b60405161011c9190610772565b60405180910390f35b34801561013157600080fd5b5061013a610657565b6040516101479190610772565b60405180910390f35b6000600360003373ffffffffffffffffffffffffffffffffffffffff1673ffffffffffffffffffffffffffffffffffffffff16815260200190815260200160002054905060008054906101000a900473ffffffffffffffffffffffffffffffffffffffff1673ffffffffffffffffffffffffffffffffffffffff163373ffffffffffffffffffffffffffffffffffffffff1614806101ef575060015481145b61022e576040517f08c379a00000000000000000000000000000000000000000000000000000000081526004016102259061083a565b60405180910390fd5b60015482148061023f575060025482145b61027e576040517f08c379a0000000000000000000000000000000000000000000000000000000008152600401610275906108a6565b60405180910390fd5b8273ffffffffffffffffffffffffffffffffffffffff163373ffffffffffffffffffffffffffffffffffffffff16036102ec576040517f08c379a00000000000000000000000000000000000000000000000000000000081526004016102e390610912565b60405180910390fd5b8273ffffffffffffffffffffffffffffffffffffffff1660008054906101000a900473ffffffffffffffffffffffffffffffffffffffff1673ffffffffffffffffffffffffffffffffffffffff160361037a576040517f08c379a00000000000000000000000000000000000000000000000000000000081526004016103719061097e565b60405180910390fd5b81600360008573ffffffffffffffffffffffffffffffffffffffff1673ffffffffffffffffffffffffffffffffffffffff16815260200190815260200160002081905550505050565b6000600360008373ffffffffffffffffffffffffffffffffffffffff1673ffffffffffffffffffffffffffffffffffffffff168152602001908152602001600020549050919050565b6000600360003373ffffffffffffffffffffffffffffffffffffffff1673ffffffffffffffffffffffffffffffffffffffff16815260200190815260200160002054905060008054906101000a900473ffffffffffffffffffffffffffffffffffffffff1673ffffffffffffffffffffffffffffffffffffffff163373ffffffffffffffffffffffffffffffffffffffff1614806104ab575060015481145b6104ea576040517f08c379a00000000000000000000000000000000000000000000000000000000081526004016104e19061083a565b60405180910390fd5b8173ffffffffffffffffffffffffffffffffffffffff163373ffffffffffffffffffffffffffffffffffffffff1603610558576040517f08c379a000000000000000000000000000000000000000000000000000000000815260040161054f906109ea565b60405180910390fd5b8173ffffffffffffffffffffffffffffffffffffffff1660008054906101000a900473ffffffffffffffffffffffffffffffffffffffff1673ffffffffffffffffffffffffffffffffffffffff16036105e6576040517f08c379a00000000000000000000000000000000000000000000000000000000081526004016105dd90610a7c565b60405180910390fd5b600360008373ffffffffffffffffffffffffffffffffffffffff1673ffffffffffffffffffffffffffffffffffffffff168152602001908152602001600020600090555050565b60008054906101000a900473ffffffffffffffffffffffffffffffffffffffff1681565b60025481565b60015481565b600080fd5b600073ffffffffffffffffffffffffffffffffffffffff82169050919050565b600061068d82610662565b9050919050565b61069d81610682565b81146106a857600080fd5b50565b6000813590506106ba81610694565b92915050565b6000819050919050565b6106d3816106c0565b81146106de57600080fd5b50565b6000813590506106f0816106ca565b92915050565b6000806040838503121561070d5761070c61065d565b5b600061071b858286016106ab565b925050602061072c858286016106e1565b9150509250929050565b60006020828403121561074c5761074b61065d565b5b600061075a848285016106ab565b91505092915050565b61076c816106c0565b82525050565b60006020820190506107876000830184610763565b92915050565b61079681610682565b82525050565b60006020820190506107b1600083018461078d565b92915050565b600082825260208201905092915050565b7f596f752068617665206e6f2061636365737320746f2074686973206d6574686f60008201527f6400000000000000000000000000000000000000000000000000000000000000602082015250565b60006108246021836107b7565b915061082f826107c8565b604082019050919050565b6000602082019050818103600083015261085381610817565b9050919050565b7f556e6b6e6f776e20726f6c650000000000000000000000000000000000000000600082015250565b6000610890600c836107b7565b915061089b8261085a565b602082019050919050565b600060208201905081810360008301526108bf81610883565b9050919050565b7f596f752063616e206e6f742073657420726f6c6520746f20796f757273656c66600082015250565b60006108fc6020836107b7565b9150610907826108c6565b602082019050919050565b6000602082019050818103600083015261092b816108ef565b9050919050565b7f596f752063616e206e6f742073657420726f6c6520746f206f776e6572000000600082015250565b6000610968601d836107b7565b915061097382610932565b602082019050919050565b600060208201905081810360008301526109978161095b565b9050919050565b7f596f752063616e206e6f7420736574207265766f6b6520796f757220726f6c65600082015250565b60006109d46020836107b7565b91506109df8261099e565b602082019050919050565b60006020820190508181036000830152610a03816109c7565b9050919050565b7f596f752063616e206e6f7420736574207265766f6b65206f776e65722773207260008201527f6f6c650000000000000000000000000000000000000000000000000000000000602082015250565b6000610a666023836107b7565b9150610a7182610a0a565b604082019050919050565b60006020820190508181036000830152610a9581610a59565b905091905056fea26469706673582212209ab2e977cace0b066e33da9d4b2ebab73f912e34f7b8cfc4e769620b88512d8c64736f6c634300080d0033",
  "immutableReferences": {},
  "source": "// SPDX-License-Identifier: MIT\npragma solidity >=0.4.22 <0.9.0;\n\n//import \"@openzeppelin/contracts/access/AccessControl.sol\";\n\n//contract y0 is AccessControl {\ncontract y0 {\n  address public owner;\n\n  uint public admin = 1;\n  uint public reader = 2;\n\n  mapping (address => uint) users;\n\n  constructor() public {\n    owner = msg.sender;\n    users[msg.sender] = admin;\n  }\n\n  function getRole(address acc) public view returns(uint) {\n    return users[acc];\n  }\n\n  function revokeRole(address acc) public payable {\n    uint user = users[msg.sender];\n\n    require(\n      msg.sender == owner || user == admin,\n      \"You have no access to this method\"\n    );\n\n    require(\n      msg.sender != acc,\n      \"You can not set revoke your role\"\n    );\n\n    require(\n      owner != acc,\n      \"You can not set revoke owner's role\"\n    );\n\n    delete users[acc];\n  }\n\n  function grantRole(address acc, uint role) public payable {\n    uint user = users[msg.sender];\n\n    require(\n      msg.sender == owner || user == admin,\n      \"You have no access to this method\"\n    );\n\n    require(\n      role == admin || role == reader,\n      \"Unknown role\"\n    );\n\n    require(\n      msg.sender != acc,\n      \"You can not set role to yourself\"\n    );\n\n    require(\n      owner != acc,\n      \"You can not set role to owner\"\n    );\n\n    users[acc] = role;\n  }\n}\n",
  "sourcePath": "/Users/dm/y0Contract/contracts/y0.sol",
  "compiler": {
    "name": "solc",
    "version": "0.8.13+commit.abaa5c0e.Emscripten.clang"
  },
  "schemaVersion": "3.4.7",
  "updatedAt": "2022-05-04T13:00:17.369Z",
  "networkType": "ethereum",
  "devdoc": {
    "kind": "dev",
    "methods": {},
    "version": 1
  },
  "userdoc": {
    "kind": "user",
    "methods": {},
    "version": 1
  }
}